{
  "contractName": "Survey",
  "abi": [
    {
      "constant": false,
      "inputs": [],
      "name": "renounceOwnership",
      "outputs": [],
      "payable": false,
      "stateMutability": "nonpayable",
      "type": "function"
    },
    {
      "constant": true,
      "inputs": [],
      "name": "owner",
      "outputs": [
        {
          "name": "",
          "type": "address"
        }
      ],
      "payable": false,
      "stateMutability": "view",
      "type": "function"
    },
    {
      "constant": true,
      "inputs": [
        {
          "name": "",
          "type": "uint256"
        }
      ],
      "name": "questionnaires",
      "outputs": [
        {
          "name": "",
          "type": "bytes32"
        }
      ],
      "payable": false,
      "stateMutability": "view",
      "type": "function"
    },
    {
      "constant": true,
      "inputs": [],
      "name": "contractStopped",
      "outputs": [
        {
          "name": "",
          "type": "bool"
        }
      ],
      "payable": false,
      "stateMutability": "view",
      "type": "function"
    },
    {
      "constant": true,
      "inputs": [
        {
          "name": "",
          "type": "bytes32"
        }
      ],
      "name": "questionnaireStruct",
      "outputs": [
        {
          "name": "creator",
          "type": "address"
        },
        {
          "name": "questionIpfsHash",
          "type": "string"
        },
        {
          "name": "maxParticipants",
          "type": "uint256"
        },
        {
          "name": "actualParticipants",
          "type": "uint256"
        },
        {
          "name": "rewards",
          "type": "uint256"
        },
        {
          "name": "isCompleted",
          "type": "bool"
        },
        {
          "name": "numOfRewardClaimed",
          "type": "uint256"
        }
      ],
      "payable": false,
      "stateMutability": "view",
      "type": "function"
    },
    {
      "constant": false,
      "inputs": [
        {
          "name": "_newOwner",
          "type": "address"
        }
      ],
      "name": "transferOwnership",
      "outputs": [],
      "payable": false,
      "stateMutability": "nonpayable",
      "type": "function"
    },
    {
      "anonymous": false,
      "inputs": [
        {
          "indexed": true,
          "name": "creator",
          "type": "address"
        },
        {
          "indexed": false,
          "name": "key",
          "type": "bytes32"
        }
      ],
      "name": "LogCreateQuestionnaire",
      "type": "event"
    },
    {
      "anonymous": false,
      "inputs": [
        {
          "indexed": true,
          "name": "sender",
          "type": "address"
        },
        {
          "indexed": false,
          "name": "responseIpfsHash",
          "type": "string"
        }
      ],
      "name": "LogSubmitResponse",
      "type": "event"
    },
    {
      "anonymous": false,
      "inputs": [
        {
          "indexed": true,
          "name": "sender",
          "type": "address"
        },
        {
          "indexed": true,
          "name": "rewards",
          "type": "uint256"
        }
      ],
      "name": "LogClaimReward",
      "type": "event"
    },
    {
      "anonymous": false,
      "inputs": [
        {
          "indexed": true,
          "name": "previousOwner",
          "type": "address"
        }
      ],
      "name": "OwnershipRenounced",
      "type": "event"
    },
    {
      "anonymous": false,
      "inputs": [
        {
          "indexed": true,
          "name": "previousOwner",
          "type": "address"
        },
        {
          "indexed": true,
          "name": "newOwner",
          "type": "address"
        }
      ],
      "name": "OwnershipTransferred",
      "type": "event"
    },
    {
      "constant": false,
      "inputs": [],
      "name": "toggleContractStopped",
      "outputs": [],
      "payable": false,
      "stateMutability": "nonpayable",
      "type": "function"
    },
    {
      "constant": false,
      "inputs": [
        {
          "name": "questionnaireKey",
          "type": "bytes32"
        },
        {
          "name": "questionHash",
          "type": "string"
        },
        {
          "name": "maxParticipants",
          "type": "uint256"
        }
      ],
      "name": "createQuestionnaire",
      "outputs": [
        {
          "name": "",
          "type": "bool"
        }
      ],
      "payable": true,
      "stateMutability": "payable",
      "type": "function"
    },
    {
      "constant": false,
      "inputs": [
        {
          "name": "questionnaireKey",
          "type": "bytes32"
        },
        {
          "name": "responseHash",
          "type": "string"
        }
      ],
      "name": "submitResponse",
      "outputs": [
        {
          "name": "",
          "type": "bool"
        }
      ],
      "payable": false,
      "stateMutability": "nonpayable",
      "type": "function"
    },
    {
      "constant": false,
      "inputs": [
        {
          "name": "questionnaireKey",
          "type": "bytes32"
        }
      ],
      "name": "cliamRewards",
      "outputs": [
        {
          "name": "",
          "type": "bool"
        }
      ],
      "payable": false,
      "stateMutability": "nonpayable",
      "type": "function"
    },
    {
      "constant": false,
      "inputs": [
        {
          "name": "questionnaireKey",
          "type": "bytes32"
        },
        {
          "name": "isCompleted",
          "type": "bool"
        }
      ],
      "name": "setQuestionnaireStatus",
      "outputs": [
        {
          "name": "",
          "type": "bool"
        }
      ],
      "payable": false,
      "stateMutability": "nonpayable",
      "type": "function"
    },
    {
      "constant": true,
      "inputs": [],
      "name": "balance",
      "outputs": [
        {
          "name": "",
          "type": "uint256"
        }
      ],
      "payable": false,
      "stateMutability": "view",
      "type": "function"
    },
    {
      "constant": true,
      "inputs": [
        {
          "name": "questionnaireKey",
          "type": "bytes32"
        }
      ],
      "name": "getQuestionnairesCount",
      "outputs": [
        {
          "name": "",
          "type": "uint256"
        }
      ],
      "payable": false,
      "stateMutability": "view",
      "type": "function"
    },
    {
      "constant": true,
      "inputs": [],
      "name": "getAllQuestionnaires",
      "outputs": [
        {
          "name": "",
          "type": "bytes32[]"
        }
      ],
      "payable": false,
      "stateMutability": "view",
      "type": "function"
    },
    {
      "constant": true,
      "inputs": [
        {
          "name": "questionnaireKey",
          "type": "bytes32"
        },
        {
          "name": "index",
          "type": "uint256"
        }
      ],
      "name": "getQuestionnairesResponse",
      "outputs": [
        {
          "name": "",
          "type": "address"
        },
        {
          "name": "",
          "type": "string"
        }
      ],
      "payable": false,
      "stateMutability": "view",
      "type": "function"
    }
  ],
  "bytecode": "0x60806040526000600260006101000a81548160ff021916908315150217905550336000806101000a81548173ffffffffffffffffffffffffffffffffffffffff021916908373ffffffffffffffffffffffffffffffffffffffff160217905550611d298061006e6000396000f3006080604052600436106100db576000357c0100000000000000000000000000000000000000000000000000000000900463ffffffff1680634511ddee146100e057806356d74b071461014c578063715018a6146101955780637ec18ce2146101ac5780638da5cb5b146101f15780638daad508146102485780639ba1d06e14610291578063ae97b2b414610378578063b69ef8a8146103cd578063daea74c5146103f8578063e0b7eea314610427578063e83c78d4146104b3578063ebd6e77c146104ca578063f2fde38b146105ce578063fa4e484014610611575b600080fd5b3480156100ec57600080fd5b506100f56106a0565b6040518080602001828103825283818151815260200191508051906020019060200280838360005b8381101561013857808201518184015260208101905061011d565b505050509050019250505060405180910390f35b34801561015857600080fd5b5061017b60048036038101908080356000191690602001909291905050506106fc565b604051808215151515815260200191505060405180910390f35b3480156101a157600080fd5b506101aa610c7e565b005b3480156101b857600080fd5b506101db6004803603810190808035600019169060200190929190505050610d80565b6040518082815260200191505060405180910390f35b3480156101fd57600080fd5b50610206610dab565b604051808273ffffffffffffffffffffffffffffffffffffffff1673ffffffffffffffffffffffffffffffffffffffff16815260200191505060405180910390f35b34801561025457600080fd5b5061027360048036038101908080359060200190929190505050610dd0565b60405180826000191660001916815260200191505060405180910390f35b34801561029d57600080fd5b506102ca600480360381019080803560001916906020019092919080359060200190929190505050610df3565b604051808373ffffffffffffffffffffffffffffffffffffffff1673ffffffffffffffffffffffffffffffffffffffff16815260200180602001828103825283818151815260200191508051906020019080838360005b8381101561033c578082015181840152602081019050610321565b50505050905090810190601f1680156103695780820380516001836020036101000a031916815260200191505b50935050505060405180910390f35b34801561038457600080fd5b506103b36004803603810190808035600019169060200190929190803515159060200190929190505050610f72565b604051808215151515815260200191505060405180910390f35b3480156103d957600080fd5b506103e2610fc6565b6040518082815260200191505060405180910390f35b34801561040457600080fd5b5061040d610fe5565b604051808215151515815260200191505060405180910390f35b6104996004803603810190808035600019169060200190929190803590602001908201803590602001908080601f016020809104026020016040519081016040528093929190818152602001838380828437820191505050505050919291929080359060200190929190505050610ff8565b604051808215151515815260200191505060405180910390f35b3480156104bf57600080fd5b506104c861136e565b005b3480156104d657600080fd5b506104f960048036038101908080356000191690602001909291905050506113f5565b604051808873ffffffffffffffffffffffffffffffffffffffff1673ffffffffffffffffffffffffffffffffffffffff1681526020018060200187815260200186815260200185815260200184151515158152602001838152602001828103825288818151815260200191508051906020019080838360005b8381101561058d578082015181840152602081019050610572565b50505050905090810190601f1680156105ba5780820380516001836020036101000a031916815260200191505b509850505050505050505060405180910390f35b3480156105da57600080fd5b5061060f600480360381019080803573ffffffffffffffffffffffffffffffffffffffff1690602001909291905050506114fc565b005b34801561061d57600080fd5b506106866004803603810190808035600019169060200190929190803590602001908201803590602001908080601f0160208091040260200160405190810160405280939291908181526020018383808284378201915050505050509192919290505050611563565b604051808215151515815260200191505060405180910390f35b606060018054806020026020016040519081016040528092919081815260200182805480156106f257602002820191906000526020600020905b815460001916815260200190600101908083116106da575b5050505050905090565b60008060008060036000866000191660001916815260200190815260200160002092508260050160009054906101000a900460ff1615156107cb576040517f08c379a00000000000000000000000000000000000000000000000000000000081526004018080602001828103825260248152602001807f4d6178207061727469636970616e7473206973206e6f7420726561636865642081526020017f7965742e0000000000000000000000000000000000000000000000000000000081525060400191505060405180910390fd5b82600301548360060154101515610870576040517f08c379a000000000000000000000000000000000000000000000000000000000815260040180806020018281038252603f8152602001807f546865204d6178206f6620746865206e756d626572206f66207265776172642081526020017f63616e20626520636c61696d656420616c726561647920726561636865642e0081525060400191505060405180910390fd5b60046000866000191660001916815260200190815260200160002060003373ffffffffffffffffffffffffffffffffffffffff1673ffffffffffffffffffffffffffffffffffffffff16815260200190815260200160002060020160009054906101000a900460ff16151515610974576040517f08c379a00000000000000000000000000000000000000000000000000000000081526004018080602001828103825260268152602001807f53656e64657220616c726561647920636c69616d6564206869732f686572207281526020017f65776172642e000000000000000000000000000000000000000000000000000081525060400191505060405180910390fd5b600060046000876000191660001916815260200190815260200160002060003373ffffffffffffffffffffffffffffffffffffffff1673ffffffffffffffffffffffffffffffffffffffff16815260200190815260200160002060000160009054906101000a900473ffffffffffffffffffffffffffffffffffffffff1673ffffffffffffffffffffffffffffffffffffffff16111515610aa3576040517f08c379a00000000000000000000000000000000000000000000000000000000081526004018080602001828103825260348152602001807f53656e64657220646f6573206e6f74206861766520706172746963697061746581526020017f6420746865207175657374696f6e6e616972652e00000000000000000000000081525060400191505060405180910390fd5b82600301548360040154811515610ab657fe5b04915081610ac2610fc6565b10151515610b5e576040517f08c379a00000000000000000000000000000000000000000000000000000000081526004018080602001828103825260268152602001807f436f6e747261637420646f6573206e6f74206861766520656e6f75676820626181526020017f6c616e63652e000000000000000000000000000000000000000000000000000081525060400191505060405180910390fd5b60046000866000191660001916815260200190815260200160002060003373ffffffffffffffffffffffffffffffffffffffff1673ffffffffffffffffffffffffffffffffffffffff168152602001908152602001600020905060018160020160006101000a81548160ff021916908315150217905550600183600601600082825401925050819055503373ffffffffffffffffffffffffffffffffffffffff166108fc839081150290604051600060405180830381858888f19350505050158015610c2e573d6000803e3d6000fd5b50813373ffffffffffffffffffffffffffffffffffffffff167e88698087683efcc8a59e33509a7f05db120225a39c77fbd7d984047f5788e360405160405180910390a360019350505050919050565b6000809054906101000a900473ffffffffffffffffffffffffffffffffffffffff1673ffffffffffffffffffffffffffffffffffffffff163373ffffffffffffffffffffffffffffffffffffffff16141515610cd957600080fd5b6000809054906101000a900473ffffffffffffffffffffffffffffffffffffffff1673ffffffffffffffffffffffffffffffffffffffff167ff8df31144d9c2f0f6b59d69b8b98abd5459d07f2742c4df920b25aae33c6482060405160405180910390a260008060006101000a81548173ffffffffffffffffffffffffffffffffffffffff021916908373ffffffffffffffffffffffffffffffffffffffff160217905550565b6000600360008360001916600019168152602001908152602001600020600701805490509050919050565b6000809054906101000a900473ffffffffffffffffffffffffffffffffffffffff1681565b600181815481101515610ddf57fe5b906000526020600020016000915090505481565b60006060610dff611b9e565b60036000866000191660001916815260200190815260200160002060070184815481101515610e2a57fe5b9060005260206000209060030201606060405190810160405290816000820160009054906101000a900473ffffffffffffffffffffffffffffffffffffffff1673ffffffffffffffffffffffffffffffffffffffff1673ffffffffffffffffffffffffffffffffffffffff168152602001600182018054600181600116156101000203166002900480601f016020809104026020016040519081016040528092919081815260200182805460018160011615610100020316600290048015610f335780601f10610f0857610100808354040283529160200191610f33565b820191906000526020600020905b815481529060010190602001808311610f1657829003601f168201915b505050505081526020016002820160009054906101000a900460ff16151515158152505090508060000151816020015180905092509250509250929050565b600080600360008560001916600019168152602001908152602001600020905082151515610f9f57600080fd5b828160050160006101000a81548160ff021916908315150217905550600191505092915050565b60003073ffffffffffffffffffffffffffffffffffffffff1631905090565b600260009054906101000a900460ff1681565b60006060600260009054906101000a900460ff1615151561101857600080fd5b600034111515611090576040517f08c379a00000000000000000000000000000000000000000000000000000000081526004018080602001828103825260128152602001807f526577617264206c657373207468616e2030000000000000000000000000000081525060200191505060405180910390fd5b600083111515611108576040517f08c379a000000000000000000000000000000000000000000000000000000000815260040180806020018281038252601c8152602001807f4d6178205061727469636970616e7473206c657373207468616e20300000000081525060200191505060405180910390fd5b8390506000815114151515611185576040517f08c379a00000000000000000000000000000000000000000000000000000000081526004018080602001828103825260128152602001807f49504653206861736820697320656d707479000000000000000000000000000081525060200191505060405180910390fd5b3360036000876000191660001916815260200190815260200160002060000160006101000a81548173ffffffffffffffffffffffffffffffffffffffff021916908373ffffffffffffffffffffffffffffffffffffffff160217905550836003600087600019166000191681526020019081526020016000206001019080519060200190611214929190611bd8565b5082600360008760001916600019168152602001908152602001600020600201819055506000600360008760001916600019168152602001908152602001600020600301819055503460036000876000191660001916815260200190815260200160002060040181905550600060036000876000191660001916815260200190815260200160002060050160006101000a81548160ff02191690831515021790555060006003600087600019166000191681526020019081526020016000206006018190555060018590806001815401808255809150509060018203906000526020600020016000909192909190915090600019169055503373ffffffffffffffffffffffffffffffffffffffff167f25ad79b1e3f06c37be54493abd4ac995650dfd7bbe0a7d7e2216c99e307f2d2a8660405180826000191660001916815260200191505060405180910390a260019150509392505050565b6000809054906101000a900473ffffffffffffffffffffffffffffffffffffffff1673ffffffffffffffffffffffffffffffffffffffff163373ffffffffffffffffffffffffffffffffffffffff161415156113c957600080fd5b600260009054906101000a900460ff1615600260006101000a81548160ff021916908315150217905550565b60036020528060005260406000206000915090508060000160009054906101000a900473ffffffffffffffffffffffffffffffffffffffff1690806001018054600181600116156101000203166002900480601f0160208091040260200160405190810160405280929190818152602001828054600181600116156101000203166002900480156114c75780601f1061149c576101008083540402835291602001916114c7565b820191906000526020600020905b8154815290600101906020018083116114aa57829003601f168201915b5050505050908060020154908060030154908060040154908060050160009054906101000a900460ff16908060060154905087565b6000809054906101000a900473ffffffffffffffffffffffffffffffffffffffff1673ffffffffffffffffffffffffffffffffffffffff163373ffffffffffffffffffffffffffffffffffffffff1614151561155757600080fd5b61156081611aa4565b50565b60008061156e611b9e565b60036000866000191660001916815260200190815260200160002091508160050160009054906101000a900460ff16151515611612576040517f08c379a000000000000000000000000000000000000000000000000000000000815260040180806020018281038252601b8152602001807f5175657374696f6e6e6169726520697320636f6d706c657465642e000000000081525060200191505060405180910390fd5b816002015482600301541015156116b7576040517f08c379a00000000000000000000000000000000000000000000000000000000081526004018080602001828103825260258152602001807f4d6178207061727469636970616e747320617265207265616368656420616c7281526020017f656164792e00000000000000000000000000000000000000000000000000000081525060400191505060405180910390fd5b600073ffffffffffffffffffffffffffffffffffffffff1660046000876000191660001916815260200190815260200160002060003373ffffffffffffffffffffffffffffffffffffffff1673ffffffffffffffffffffffffffffffffffffffff16815260200190815260200160002060000160009054906101000a900473ffffffffffffffffffffffffffffffffffffffff1673ffffffffffffffffffffffffffffffffffffffff161415156117d6576040517f08c379a00000000000000000000000000000000000000000000000000000000081526004018080602001828103825260158152602001807f596f75206861766520646f6e65206265666f72652e000000000000000000000081525060200191505060405180910390fd5b6060604051908101604052803373ffffffffffffffffffffffffffffffffffffffff16815260200185815260200160001515815250905081600701819080600181540180825580915050906001820390600052602060002090600302016000909192909190915060008201518160000160006101000a81548173ffffffffffffffffffffffffffffffffffffffff021916908373ffffffffffffffffffffffffffffffffffffffff16021790555060208201518160010190805190602001906118a0929190611c58565b5060408201518160020160006101000a81548160ff021916908315150217905550505050600182600301600082825401925050819055508060046000876000191660001916815260200190815260200160002060003373ffffffffffffffffffffffffffffffffffffffff1673ffffffffffffffffffffffffffffffffffffffff16815260200190815260200160002060008201518160000160006101000a81548173ffffffffffffffffffffffffffffffffffffffff021916908373ffffffffffffffffffffffffffffffffffffffff1602179055506020820151816001019080519060200190611993929190611c58565b5060408201518160020160006101000a81548160ff0219169083151502179055509050508160020154826003015414156119e55760018260050160006101000a81548160ff0219169083151502179055505b3373ffffffffffffffffffffffffffffffffffffffff167f7907456d8c06acfbdb9f853c06d46853e89cea7592427a1ef06e6df592d99a92856040518080602001828103825283818151815260200191508051906020019080838360005b83811015611a5e578082015181840152602081019050611a43565b50505050905090810190601f168015611a8b5780820380516001836020036101000a031916815260200191505b509250505060405180910390a260019250505092915050565b600073ffffffffffffffffffffffffffffffffffffffff168173ffffffffffffffffffffffffffffffffffffffff1614151515611ae057600080fd5b8073ffffffffffffffffffffffffffffffffffffffff166000809054906101000a900473ffffffffffffffffffffffffffffffffffffffff1673ffffffffffffffffffffffffffffffffffffffff167f8be0079c531659141344cd1fd0a4f28419497f9722a3daafe3b4186f6b6457e060405160405180910390a3806000806101000a81548173ffffffffffffffffffffffffffffffffffffffff021916908373ffffffffffffffffffffffffffffffffffffffff16021790555050565b606060405190810160405280600073ffffffffffffffffffffffffffffffffffffffff168152602001606081526020016000151581525090565b828054600181600116156101000203166002900490600052602060002090601f016020900481019282601f10611c1957805160ff1916838001178555611c47565b82800160010185558215611c47579182015b82811115611c46578251825591602001919060010190611c2b565b5b509050611c549190611cd8565b5090565b828054600181600116156101000203166002900490600052602060002090601f016020900481019282601f10611c9957805160ff1916838001178555611cc7565b82800160010185558215611cc7579182015b82811115611cc6578251825591602001919060010190611cab565b5b509050611cd49190611cd8565b5090565b611cfa91905b80821115611cf6576000816000905550600101611cde565b5090565b905600a165627a7a723058204874e24e15145fe9fded9403ee8f63d8f4bfeaea305c601b2011fe66dc1645d90029",
  "source": "pragma solidity 0.4.24;\n\nimport \"./Ownable.sol\";\n\n/// @title A survey smart contract\n/// @author Anson Lau\n/// @notice You can use this contract for creating simple questionnaire and reward Ether to the participants\n/// Those questions & answers is stored in IPFS\n\ncontract Survey is Ownable {\n    /// @dev This emits when create questionnaire is created\n    event LogCreateQuestionnaire(address indexed creator, bytes32 key); \n    \n    /// @dev This emits when response is submitted\n    event LogSubmitResponse(address indexed sender, string responseIpfsHash);\n    \n    /// @dev This emits when the participant claim reward\n    event LogClaimReward(address indexed sender, uint256 indexed rewards);\n    \n    // Keep all questionnaires\n    bytes32 [] public questionnaires;\n    \n    // Status of the current contract \n    bool public contractStopped = false;\n    \n    // Mapping of questionnaire key to questionnaire\n    mapping (bytes32 => Questionnaire) public questionnaireStruct;\n    \n    // Mapping of questionnaire key and sender address to the Response struct \n    // This enables use questionnaire[key][senderAddress] to retrieve the Response struct\n    mapping (bytes32 => mapping (address => Response)) private responseStruct;\n\n    // Questionnaire data structure\n    struct Questionnaire {\n        address creator;\n        string questionIpfsHash; \n        uint256 maxParticipants;\n        uint256 actualParticipants;\n        uint256 rewards;            // Reward in ETH\n        bool isCompleted;\n        uint256 numOfRewardClaimed;\n        Response[] responses;       // Participants response\n    }\n    \n    // Participant data structure\n    struct Response {\n        address sender;\n        string responseIpfsHash;    \n        bool isRewardClaimed;       // True or False\n    }\n\n    // Used to check contract status before executing createQuestionnaire function\n    modifier haltInEmergency {\n        require(!contractStopped);\n        _;\n    }\n    \n    /// @notice only the contract owner is allowed to change\n    /// @dev change the contract status to pause or continue\n    function toggleContractStopped() public onlyOwner {\n        contractStopped = !contractStopped;\n    }\n\n    /// @dev create a new questionnaire\n    /// @param questionnaireKey The key of questionnaire (Generated by using hash function)\n    /// @param questionHash The unique IPFS hash to represent the list of questions\n    /// @param maxParticipants The number of people can submit their responses\n    /// @return True if the questionnaire is successfully created\n     // Need questionnaire title ???\n    function createQuestionnaire(bytes32 questionnaireKey, string questionHash, uint256 maxParticipants) public haltInEmergency payable returns (bool) {\n        // Validate reward & max participants are greater than 0\n        require(msg.value > 0, \"Reward less than 0\");\n        require(maxParticipants > 0, \"Max Participants less than 0\");\n        // Validate questionHash is not empty\n        bytes memory emptyHashTest = bytes(questionHash); // Uses memory\n        require(emptyHashTest.length != 0, \"IPFS hash is empty\");\n        // Initialize the questionnaire\n        questionnaireStruct[questionnaireKey].creator = msg.sender;\n        questionnaireStruct[questionnaireKey].questionIpfsHash = questionHash;\n        questionnaireStruct[questionnaireKey].maxParticipants = maxParticipants;\n        questionnaireStruct[questionnaireKey].actualParticipants = 0;\n        questionnaireStruct[questionnaireKey].rewards = msg.value;\n        questionnaireStruct[questionnaireKey].isCompleted = false;\n        questionnaireStruct[questionnaireKey].numOfRewardClaimed = 0;\n        questionnaires.push(questionnaireKey);\n\n        emit LogCreateQuestionnaire(msg.sender, questionnaireKey);\n        return true;\n    }\n\n    /// @dev participant submit a response to the questionnaire\n    /// @param questionnaireKey The key of questionnaire\n    /// @param responseHash The unique IPFS hash to represent the answers\n    /// @return True if the response is successfully submitted\n    function submitResponse(bytes32 questionnaireKey, string responseHash) public returns (bool) {\n        Questionnaire storage questionnaire = questionnaireStruct[questionnaireKey];        \n        // Validate questionnaire status\n        require(!questionnaire.isCompleted, \"Questionnaire is completed.\");\n        // Validate actualParticipants < maxParticipants\n        require(questionnaire.actualParticipants < questionnaire.maxParticipants, \"Max participants are reached already.\");\n        // Validate sender has not responsed to the questionnaire before\n        require(responseStruct[questionnaireKey][msg.sender].sender == address(0), \"You have done before.\");\n        // Push the Response to the questionnaire & update actualParticipants\n        Response memory response = Response(msg.sender, responseHash, false);\n        questionnaire.responses.push(response);\n        questionnaire.actualParticipants += 1;\n        // Assign the response to a specific questionnaireKey & sender for searching\n        responseStruct[questionnaireKey][msg.sender] = response;\n        // Check if the max participants are reached\n        if (questionnaire.actualParticipants == questionnaire.maxParticipants) {\n            questionnaire.isCompleted = true;\n        }\n\n        emit LogSubmitResponse(msg.sender, responseHash);\n        return true;    \n    }\n\n    /// @dev participant can cliam his/her reward when the questionnaire is completed\n    /// @param questionnaireKey The key of questionnaire\n    /// @return True if the reward claim is succeed and transfer the reward to the sender\n    function cliamRewards(bytes32 questionnaireKey) public returns (bool) {\n        Questionnaire storage questionnaire = questionnaireStruct[questionnaireKey];\n        // Validate questionnaire status \n        require(questionnaire.isCompleted, \"Max participants is not reached yet.\");\n        // Validate the number of reward claim is still available\n        require(questionnaire.numOfRewardClaimed < questionnaire.actualParticipants, \"The Max of the number of reward can be claimed already reached.\");\n        // Validate the sender reward claim status\n        require(!responseStruct[questionnaireKey][msg.sender].isRewardClaimed, \"Sender already cliamed his/her reward.\");\n        // Validate the sender has submitted a response\n        require(responseStruct[questionnaireKey][msg.sender].sender > 0, \"Sender does not have participated the questionnaire.\");\n        // Calculate the indvidual reward by dividing actualParticipants / rewards\n        uint individualRewardAllocation = questionnaire.rewards / questionnaire.actualParticipants;\n        // Validate the contract has enough balance\n        require(balance() >= individualRewardAllocation, \"Contract does not have enough balance.\");\n        // Update the rewardClaim & number of rewardCliamed\n        Response storage response = responseStruct[questionnaireKey][msg.sender];\n        response.isRewardClaimed = true;\n        questionnaire.numOfRewardClaimed += 1;\n        // Transfer reward to the sender\n        msg.sender.transfer(individualRewardAllocation);\n        emit LogClaimReward(msg.sender, individualRewardAllocation);\n        return true;\n    }\n\n    /// @notice When you create a questionnaire and set Max particpants\n    ///         to 100 and after some time that still has not reached the target\n    ///         then the creator can mannully change the status to COMPLETED for\n    ///         particpants to cliam their rewards\n    /// @dev Change the questionnaire status to COMPLETED manually\n    /// @param questionnaireKey The key of questionnaire\n    /// @param isCompleted Current status of the questionnaire\n    /// @return True if the questionnaire status is updated to true \n    function setQuestionnaireStatus(bytes32 questionnaireKey, bool isCompleted) public returns (bool) {\n        Questionnaire storage questionnaire = questionnaireStruct[questionnaireKey];\n        // Validate questionnaire status\n        require(!isCompleted);\n        questionnaire.isCompleted = isCompleted;\n        return true;\n    }\n\n    /// @return the contract balance\n    function balance() public view returns (uint256) {\n        return address(this).balance;\n    }\n\n    /// @dev get the number of responses for a particular questionnaire\n    /// @param questionnaireKey The key of questionnaire\n    /// @return the total number of responses for a specific questionnaire\n    function getQuestionnairesCount(bytes32 questionnaireKey) public view returns (uint) {\n        return questionnaireStruct[questionnaireKey].responses.length;\n    }\n    \n    /// @return all questionnaires keys\n    function getAllQuestionnaires() external view returns (bytes32[]) {\n        return questionnaires;    \n    }\n    \n    /// @dev get a specific location response by providing key & index\n    /// @param questionnaireKey The key of questionnaire\n    /// @param index The specific position of the Responses array\n    function getQuestionnairesResponse(bytes32 questionnaireKey, uint256 index) external view returns (address, string) {\n        Response memory response = questionnaireStruct[questionnaireKey].responses[index];\n        return (response.sender, response.responseIpfsHash);\n    }\n}",
  "sourcePath": "/Users/anson/consensysProject/contracts/Survey.sol",
  "compiler": {
    "name": "solc",
    "version": "0.4.24+commit.e67f0147.Emscripten.clang"
  },
  "schemaVersion": "2.0.1",
  "updatedAt": "2018-08-26T11:39:16.709Z"
}